:100000000C942D000C9481000C9481000C948100C0
:100010000C9481000C9481000C9481000C9481005C
:100020000C9481000C9481000C9481000C9481004C
:100030000C9481000C9481000C9481000C9481003C
:100040000C9481000C9481000C9481000C9481002C
:100050000C94810000600061800011241FBECFE578
:10006000D8E0DEBFCDBFE4E5F0E040E017C0B591D9
:10007000A59135912591059107FD0CC0959185912C
:10008000EF01F92FE82F05900D92A217B307D9F7CA
:10009000FE0104C01D92A217B307E1F7E935F4078A
:0E00A00031F70E9457000C945500F894FFCFE2
:1000AE000E94790084B3846884BB8B9A0E947D0081
:1000BE0080936000813611F4AA9AF8CF823611F43B
:1000CE00AA98F4CF833611F4AF9AF0CF843611F498
:1000DE00AF98ECCF853611F4939AE8CF863631F788
:0400EE009398E4CF30
:0800F20080E487BB8DB908957D
:0800FA00779BFECF8FB1089542
:040102000C94000059
:00000001FF
