:100000000C942D000C9484000C9484000C948400B7
:100010000C9484000C9484000C9484000C94840050
:100020000C9484000C9484000C9484000C94840040
:100030000C9484000C9484000C9484000C94840030
:100040000C9484000C9484000C9484000C94840020
:100050000C94840000600061800011241FBECFE575
:10006000D8E0DEBFCDBFE4E5F0E040E017C0B591D9
:10007000A59135912591059107FD0CC0959185912C
:10008000EF01F92FE82F05900D92A217B307D9F7CA
:10009000FE0104C01D92A217B307E1F7E935F4078A
:0E00A00031F70E946A000C945500F894FFCFCF
:1000AE008230910541F08330910541F0019741F482
:1000BE00539A549805C0549A539802C0539A549A1E
:0600CE0087E689B90895E0
:1000D40082E090E00E9457000E9477000E94800016
:0A00E400809360000E947C00F9CFB9
:0A00EE0080EB87BB83E58DB9089510
:0800F8008FB9779BFECF08953C
:080100005F9BFECF8CB1089556
:040108000C94000053
:00000001FF
